{
  "_format": "hh-sol-artifact-1",
  "contractName": "zkNews",
  "sourceName": "contracts/zkNews.sol",
  "abi": [
    {
      "inputs": [
        {
          "internalType": "address",
          "name": "_verifier",
          "type": "address"
        }
      ],
      "stateMutability": "nonpayable",
      "type": "constructor"
    },
    {
      "anonymous": false,
      "inputs": [
        {
          "indexed": false,
          "internalType": "bytes32",
          "name": "postId",
          "type": "bytes32"
        }
      ],
      "name": "Funded",
      "type": "event"
    },
    {
      "anonymous": false,
      "inputs": [
        {
          "indexed": true,
          "internalType": "uint256",
          "name": "groupId",
          "type": "uint256"
        },
        {
          "indexed": false,
          "internalType": "uint8",
          "name": "depth",
          "type": "uint8"
        },
        {
          "indexed": false,
          "internalType": "uint256",
          "name": "zeroValue",
          "type": "uint256"
        }
      ],
      "name": "GroupCreated",
      "type": "event"
    },
    {
      "anonymous": false,
      "inputs": [
        {
          "indexed": true,
          "internalType": "uint256",
          "name": "identityCommitment",
          "type": "uint256"
        }
      ],
      "name": "IdentityCommitment",
      "type": "event"
    },
    {
      "anonymous": false,
      "inputs": [
        {
          "indexed": true,
          "internalType": "uint256",
          "name": "groupId",
          "type": "uint256"
        },
        {
          "indexed": false,
          "internalType": "uint256",
          "name": "identityCommitment",
          "type": "uint256"
        },
        {
          "indexed": false,
          "internalType": "uint256",
          "name": "root",
          "type": "uint256"
        }
      ],
      "name": "MemberAdded",
      "type": "event"
    },
    {
      "anonymous": false,
      "inputs": [
        {
          "indexed": true,
          "internalType": "uint256",
          "name": "groupId",
          "type": "uint256"
        },
        {
          "indexed": false,
          "internalType": "uint256",
          "name": "identityCommitment",
          "type": "uint256"
        },
        {
          "indexed": false,
          "internalType": "uint256",
          "name": "root",
          "type": "uint256"
        }
      ],
      "name": "MemberRemoved",
      "type": "event"
    },
    {
      "anonymous": false,
      "inputs": [
        {
          "indexed": false,
          "internalType": "bytes32",
          "name": "postId",
          "type": "bytes32"
        }
      ],
      "name": "NewPost",
      "type": "event"
    },
    {
      "anonymous": false,
      "inputs": [
        {
          "indexed": false,
          "internalType": "uint256",
          "name": "nullifierHash",
          "type": "uint256"
        }
      ],
      "name": "NullifierHashAdded",
      "type": "event"
    },
    {
      "anonymous": false,
      "inputs": [
        {
          "indexed": true,
          "internalType": "address",
          "name": "previousOwner",
          "type": "address"
        },
        {
          "indexed": true,
          "internalType": "address",
          "name": "newOwner",
          "type": "address"
        }
      ],
      "name": "OwnershipTransferred",
      "type": "event"
    },
    {
      "anonymous": false,
      "inputs": [
        {
          "indexed": false,
          "internalType": "bytes32",
          "name": "postId",
          "type": "bytes32"
        },
        {
          "indexed": false,
          "internalType": "uint256",
          "name": "balance",
          "type": "uint256"
        }
      ],
      "name": "Withdrawal",
      "type": "event"
    },
    {
      "inputs": [],
      "name": "contractAddress",
      "outputs": [
        {
          "internalType": "address",
          "name": "",
          "type": "address"
        }
      ],
      "stateMutability": "view",
      "type": "function"
    },
    {
      "inputs": [
        {
          "internalType": "bytes32",
          "name": "postId",
          "type": "bytes32"
        },
        {
          "internalType": "bytes32",
          "name": "signal",
          "type": "bytes32"
        },
        {
          "internalType": "uint256",
          "name": "root",
          "type": "uint256"
        },
        {
          "internalType": "uint256",
          "name": "nullifierHash",
          "type": "uint256"
        },
        {
          "internalType": "uint256",
          "name": "externalNullifier",
          "type": "uint256"
        },
        {
          "internalType": "uint256[8]",
          "name": "proof",
          "type": "uint256[8]"
        }
      ],
      "name": "dislikePost",
      "outputs": [
        {
          "internalType": "uint256",
          "name": "",
          "type": "uint256"
        }
      ],
      "stateMutability": "nonpayable",
      "type": "function"
    },
    {
      "inputs": [
        {
          "internalType": "bytes32",
          "name": "postId",
          "type": "bytes32"
        }
      ],
      "name": "fundPost",
      "outputs": [],
      "stateMutability": "payable",
      "type": "function"
    },
    {
      "inputs": [],
      "name": "getAllFunds",
      "outputs": [
        {
          "internalType": "uint256",
          "name": "",
          "type": "uint256"
        }
      ],
      "stateMutability": "view",
      "type": "function"
    },
    {
      "inputs": [
        {
          "internalType": "uint256",
          "name": "groupId",
          "type": "uint256"
        }
      ],
      "name": "getDepth",
      "outputs": [
        {
          "internalType": "uint8",
          "name": "",
          "type": "uint8"
        }
      ],
      "stateMutability": "view",
      "type": "function"
    },
    {
      "inputs": [
        {
          "internalType": "uint256",
          "name": "_index",
          "type": "uint256"
        }
      ],
      "name": "getIdentityCommitment",
      "outputs": [
        {
          "internalType": "uint256",
          "name": "",
          "type": "uint256"
        }
      ],
      "stateMutability": "view",
      "type": "function"
    },
    {
      "inputs": [],
      "name": "getIdentityCommitments",
      "outputs": [
        {
          "internalType": "uint256[]",
          "name": "",
          "type": "uint256[]"
        }
      ],
      "stateMutability": "view",
      "type": "function"
    },
    {
      "inputs": [
        {
          "internalType": "uint256",
          "name": "groupId",
          "type": "uint256"
        }
      ],
      "name": "getNumberOfLeaves",
      "outputs": [
        {
          "internalType": "uint256",
          "name": "",
          "type": "uint256"
        }
      ],
      "stateMutability": "view",
      "type": "function"
    },
    {
      "inputs": [
        {
          "internalType": "bytes32",
          "name": "postId",
          "type": "bytes32"
        }
      ],
      "name": "getPostDislikes",
      "outputs": [
        {
          "internalType": "uint256",
          "name": "",
          "type": "uint256"
        }
      ],
      "stateMutability": "view",
      "type": "function"
    },
    {
      "inputs": [
        {
          "internalType": "bytes32",
          "name": "postId",
          "type": "bytes32"
        }
      ],
      "name": "getPostFunds",
      "outputs": [
        {
          "internalType": "uint256",
          "name": "",
          "type": "uint256"
        }
      ],
      "stateMutability": "view",
      "type": "function"
    },
    {
      "inputs": [
        {
          "internalType": "bytes32",
          "name": "postId",
          "type": "bytes32"
        }
      ],
      "name": "getPostLikes",
      "outputs": [
        {
          "internalType": "uint256",
          "name": "",
          "type": "uint256"
        }
      ],
      "stateMutability": "view",
      "type": "function"
    },
    {
      "inputs": [
        {
          "internalType": "uint256",
          "name": "groupId",
          "type": "uint256"
        }
      ],
      "name": "getRoot",
      "outputs": [
        {
          "internalType": "uint256",
          "name": "",
          "type": "uint256"
        }
      ],
      "stateMutability": "view",
      "type": "function"
    },
    {
      "inputs": [
        {
          "internalType": "uint256",
          "name": "",
          "type": "uint256"
        }
      ],
      "name": "identityCommitments",
      "outputs": [
        {
          "internalType": "uint256",
          "name": "",
          "type": "uint256"
        }
      ],
      "stateMutability": "view",
      "type": "function"
    },
    {
      "inputs": [
        {
          "internalType": "uint256",
          "name": "_leaf",
          "type": "uint256"
        }
      ],
      "name": "insertIdentityAsClient",
      "outputs": [],
      "stateMutability": "nonpayable",
      "type": "function"
    },
    {
      "inputs": [
        {
          "internalType": "bytes32",
          "name": "postId",
          "type": "bytes32"
        },
        {
          "internalType": "bytes32",
          "name": "signal",
          "type": "bytes32"
        },
        {
          "internalType": "uint256",
          "name": "root",
          "type": "uint256"
        },
        {
          "internalType": "uint256",
          "name": "nullifierHash",
          "type": "uint256"
        },
        {
          "internalType": "uint256",
          "name": "externalNullifier",
          "type": "uint256"
        },
        {
          "internalType": "uint256[8]",
          "name": "proof",
          "type": "uint256[8]"
        }
      ],
      "name": "likePost",
      "outputs": [
        {
          "internalType": "uint256",
          "name": "",
          "type": "uint256"
        }
      ],
      "stateMutability": "nonpayable",
      "type": "function"
    },
    {
      "inputs": [],
      "name": "owner",
      "outputs": [
        {
          "internalType": "address",
          "name": "",
          "type": "address"
        }
      ],
      "stateMutability": "view",
      "type": "function"
    },
    {
      "inputs": [
        {
          "internalType": "bytes32",
          "name": "postId",
          "type": "bytes32"
        },
        {
          "internalType": "uint256",
          "name": "hashCommitment",
          "type": "uint256"
        }
      ],
      "name": "postNews",
      "outputs": [],
      "stateMutability": "nonpayable",
      "type": "function"
    },
    {
      "inputs": [
        {
          "internalType": "bytes32",
          "name": "",
          "type": "bytes32"
        }
      ],
      "name": "posts",
      "outputs": [
        {
          "internalType": "bytes32",
          "name": "postId",
          "type": "bytes32"
        },
        {
          "internalType": "uint256",
          "name": "hashCommitment",
          "type": "uint256"
        },
        {
          "internalType": "uint256",
          "name": "likes",
          "type": "uint256"
        },
        {
          "internalType": "uint256",
          "name": "dislikes",
          "type": "uint256"
        },
        {
          "internalType": "uint256",
          "name": "balance",
          "type": "uint256"
        }
      ],
      "stateMutability": "view",
      "type": "function"
    },
    {
      "inputs": [],
      "name": "renounceOwnership",
      "outputs": [],
      "stateMutability": "nonpayable",
      "type": "function"
    },
    {
      "inputs": [
        {
          "internalType": "address",
          "name": "newOwner",
          "type": "address"
        }
      ],
      "name": "transferOwnership",
      "outputs": [],
      "stateMutability": "nonpayable",
      "type": "function"
    },
    {
      "inputs": [],
      "name": "verifier",
      "outputs": [
        {
          "internalType": "contract IVerifier",
          "name": "",
          "type": "address"
        }
      ],
      "stateMutability": "view",
      "type": "function"
    },
    {
      "inputs": [
        {
          "internalType": "bytes32",
          "name": "_postId",
          "type": "bytes32"
        },
        {
          "internalType": "uint256",
          "name": "_amount",
          "type": "uint256"
        },
        {
          "internalType": "uint256",
          "name": "_hashCommitment",
          "type": "uint256"
        }
      ],
      "name": "withdrawFunds",
      "outputs": [],
      "stateMutability": "payable",
      "type": "function"
    }
  ],
  "bytecode": "0x6080604052600480546001600160a01b0319163017905534801561002257600080fd5b506040516110d43803806110d4833981016040819052610041916100c1565b61004a3361006f565b600380546001600160a01b0319166001600160a01b03929092169190911790556100f1565b600280546001600160a01b038381166001600160a01b0319831681179093556040519116919082907f8be0079c531659141344cd1fd0a4f28419497f9722a3daafe3b4186f6b6457e090600090a35050565b6000602082840312156100d357600080fd5b81516001600160a01b03811681146100ea57600080fd5b9392505050565b610fd4806101006000396000f3fe6080604052600436106101355760003560e01c80638fd0de57116100ab578063b9c78c2b1161006f578063b9c78c2b146103a7578063bde10612146103d7578063d0550143146103f7578063dff72dec1461040a578063f2fde38b1461047c578063f6b4dfb41461049c57600080fd5b80638fd0de57146102f65780639173e81f1461031657806395c5267d146103365780639b24b3b014610356578063b30b483f1461038757600080fd5b806340566790116100fd578063405667901461020f578063715018a61461023157806375e618c91461024657806385115d3d1461028857806389573783146102a85780638da5cb5b146102d857600080fd5b80631c69b4641461013a57806321408f5d14610162578063229f463d146101925780632b7ac3f3146101a75780633476a5ad146101df575b600080fd5b34801561014657600080fd5b5061014f6104bc565b6040519081526020015b60405180910390f35b34801561016e57600080fd5b5061014f61017d366004610d90565b60009081526006602052604090206002015490565b6101a56101a0366004610d90565b6104cb565b005b3480156101b357600080fd5b506003546101c7906001600160a01b031681565b6040516001600160a01b039091168152602001610159565b3480156101eb57600080fd5b5061014f6101fa366004610d90565b60009081526006602052604090206004015490565b34801561021b57600080fd5b506102246105dc565b6040516101599190610eff565b34801561023d57600080fd5b506101a5610634565b34801561025257600080fd5b50610276610261366004610d90565b60009081526001602052604090205460ff1690565b60405160ff9091168152602001610159565b34801561029457600080fd5b5061014f6102a3366004610da9565b610648565b3480156102b457600080fd5b5061014f6102c3366004610d90565b60009081526006602052604090206003015490565b3480156102e457600080fd5b506002546001600160a01b03166101c7565b34801561030257600080fd5b5061014f610311366004610d90565b6106cf565b34801561032257600080fd5b5061014f610331366004610da9565b6106f0565b34801561034257600080fd5b506101a5610351366004610e04565b610777565b34801561036257600080fd5b5061014f610371366004610d90565b6000908152600160208190526040909120015490565b34801561039357600080fd5b5061014f6103a2366004610d90565b610804565b3480156103b357600080fd5b5061014f6103c2366004610d90565b60009081526001602052604090206002015490565b3480156103e357600080fd5b506101a56103f2366004610d90565b61082b565b6101a5610405366004610e26565b61088a565b34801561041657600080fd5b50610454610425366004610d90565b600660205260009081526040902080546001820154600283015460038401546004909401549293919290919085565b604080519586526020860194909452928401919091526060830152608082015260a001610159565b34801561048857600080fd5b506101a5610497366004610d60565b610a0d565b3480156104a857600080fd5b506004546101c7906001600160a01b031681565b60006104c6610a86565b504790565b600034116105195760405162461bcd60e51b81526020600482015260166024820152756d757374206265206d6f7265207468616e207a65726f60501b60448201526064015b60405180910390fd5b6000818152600660205260409020600381015460029091015410156105805760405162461bcd60e51b815260206004820152601b60248201527f5468697320706f73742063616e206e6f742062652066756e64656400000000006044820152606401610510565b600081815260066020526040812060040180543492906105a1908490610f43565b90915550506040518181527f62b074648dd932d8b56dbf1b320b53a56881e960cd4448e11e3f7db0069efc4b9060200160405180910390a150565b6060600580548060200260200160405190810160405280929190818152602001828054801561062a57602002820191906000526020600020905b815481526020019060010190808311610616575b5050505050905090565b61063c610a86565b6106466000610ae0565b565b600061066d8686868686600360009054906101000a90046001600160a01b0316610b32565b600087815260066020526040812060030180546001929061068f908490610f43565b909155506106b49050846000908152602081905260409020805460ff19166001179055565b50505060009384525050600660205250604090206003015490565b600581815481106106df57600080fd5b600091825260209091200154905081565b60006107158686868686600360009054906101000a90046001600160a01b0316610b32565b6000878152600660205260408120600201805460019290610737908490610f43565b9091555061075c9050846000908152602081905260409020805460ff19166001179055565b50505060009384525050600660205250604090206002015490565b6040805160a081018252838152602080820184815260008385018181526060850182815260808601838152898452600686529287902086518155935160018501559051600284015551600383015551600490910155915184815290917f89afc73d9070642128ac1a96ea8f614d69e6274b88e568817c5ab86d217bed5a91015b60405180910390a1505050565b60006005828154811061081957610819610f88565b90600052602060002001549050919050565b6005805460018101825560009182527f036b6384b5eca791c62761152d0c79bb0604c104a5fb6f4eb0703f3154bb3db00182905560405182917f31d0d431762af1b333d4fef318e03efc7b702fe91dd1f0aa2c72e699bebcb48991a250565b600082116108cd5760405162461bcd60e51b815260206004820152601060248201526f6d75737420626520706f73697469766560801b6044820152606401610510565b6000838152600660205260409020600401548211156109235760405162461bcd60e51b81526020600482015260126024820152714e6f7420656e6f7567682062616c616e636560701b6044820152606401610510565b60008381526006602052604090206001015481146109835760405162461bcd60e51b815260206004820152601c60248201527f596f75722068617368636f6d6d69746d656e742069732077726f6e67000000006044820152606401610510565b604051339083156108fc029084906000818181858888f193505050501580156109b0573d6000803e3d6000fd5b50600083815260066020526040812060040180548492906109d2908490610f5b565b909155505060408051848152602081018490527fa4dfdde26c326c8cced668e6a665f4efc3f278bdc9101cdedc4f725abd63a1ee91016107f7565b610a15610a86565b6001600160a01b038116610a7a5760405162461bcd60e51b815260206004820152602660248201527f4f776e61626c653a206e6577206f776e657220697320746865207a65726f206160448201526564647265737360d01b6064820152608401610510565b610a8381610ae0565b50565b6002546001600160a01b031633146106465760405162461bcd60e51b815260206004820181905260248201527f4f776e61626c653a2063616c6c6572206973206e6f7420746865206f776e65726044820152606401610510565b600280546001600160a01b038381166001600160a01b0319831681179093556040519116919082907f8be0079c531659141344cd1fd0a4f28419497f9722a3daafe3b4186f6b6457e090600090a35050565b60008481526020819052604090205460ff1615610bb05760405162461bcd60e51b815260206004820152603660248201527f53656d6170686f7265436f72653a20796f752063616e6e6f7420757365207468604482015275652073616d65206e756c6c696669657220747769636560501b6064820152608401610510565b6000610bbb87610d29565b9050816001600160a01b0316635fe8c13b604051806040016040528086600060088110610bea57610bea610f88565b6020020135815260200186600160088110610c0757610c07610f88565b6020020135905260408051608081018252878201359181019182529081906060820189600360200201358152508152602001604051806040016040528089600460088110610c5757610c57610f88565b6020020135815260200189600560088110610c7457610c74610f88565b60200201359052905260408051808201909152808860066020020135815260200188600760088110610ca857610ca8610f88565b602002013581525060405180608001604052808c81526020018b81526020018781526020018a8152506040518563ffffffff1660e01b8152600401610cf09493929190610e7b565b60006040518083038186803b158015610d0857600080fd5b505afa158015610d1c573d6000803e3d6000fd5b5050505050505050505050565b6000600882604051602001610d4091815260200190565b60408051601f198184030181529190528051602090910120901c92915050565b600060208284031215610d7257600080fd5b81356001600160a01b0381168114610d8957600080fd5b9392505050565b600060208284031215610da257600080fd5b5035919050565b6000806000806000806101a080888a031215610dc457600080fd5b8735965060208801359550604088013594506060880135935060808801359250888189011115610df357600080fd5b5060a0870190509295509295509295565b60008060408385031215610e1757600080fd5b50508035926020909101359150565b600080600060608486031215610e3b57600080fd5b505081359360208301359350604090920135919050565b8060005b6002811015610e75578151845260209384019390910190600101610e56565b50505050565b6101808101610e8a8287610e52565b60408083018660005b6002811015610eba57610ea7838351610e52565b9183019160209190910190600101610e93565b50505050610ecb60c0830185610e52565b61010082018360005b6004811015610ef3578151835260209283019290910190600101610ed4565b50505095945050505050565b6020808252825182820181905260009190848201906040850190845b81811015610f3757835183529284019291840191600101610f1b565b50909695505050505050565b60008219821115610f5657610f56610f72565b500190565b600082821015610f6d57610f6d610f72565b500390565b634e487b7160e01b600052601160045260246000fd5b634e487b7160e01b600052603260045260246000fdfea264697066735822122063c237488a4438425b45f23aa1fcb9416e6c51cc8c7e14c3d5e443efa059221e64736f6c63430008070033",
  "linkReferences": {},
  "deployedLinkReferences": {}
}